S02500004C616230365F4469676974616C5F53656E736F725F536C6176655F4C43442E6162737F
S123E0005445432053746174653A202020202020005439323A202020204B40543D20202010
S123E020005445432053746174653A204865617420005445432053746174653A20436F6F6B
S123E0406C20005445432053746174653A204F66662020005439323A0000450140949AC60B
S123E0601802A403C71802A681C718033F003F02A6FFB701B7031300A6FFB76FCDE2A0A687
S123E08038B70210009D1100A6C8B76FCDE2A0A638B70210009D1100A6C8B76FCDE2A0A60C
S123E0A038CDE2AAA638CDE2AAA60FCDE2AAA602CDE2AACDE2A0A601CDE2AAA610B76FCD8D
S123E0C0E2A0A606CDE2AA8C5FCDE21A8C5F6E006ACDE2A0CDE1FD1300A6C0B70210009D65
S123E0E011001200CDE232CDE2C8B66041010220F9B66E41000841014841027020ECA600D2
S123E100B760B66041010220F9B66E41027C4101301300A602B70210009D11001200CDE12A
S123E120FD8C5FCDE274A600B7601300A6C0B70210009D11001200CDE28ACDE1CB20C3205C
S123E140A9A600B760B66041010220F9B66E4102394100AA1300A602B70210009D11001213
S123E16000CDE1FD8C5F2006209420D3201CCDE248A600B7601300A6C0B70210009D110058
S123E1801200CDE28ACDE1CB20BBA600B760B66041010220F9B66E4101A74100CB1300A6DA
S123E1A002B70210009D11001200CDE1FD8C5FCDE25EA600B7601300A6C0B70210009D1180
S123E1C0001200CDE28ACDE1CB20C3B66EB765A600B766B66544444444B766A630BB66B79B
S123E1E066B666CDE2AACDE1FDB665A40FB766A630BB66B766B666CDE2AACDE1FDA602C707
S123E2000120A619C70121C601214AC7012126F7C601204AC7012026E981A684CDE2B75F61
S123E220CDE2A0D6E0002709CDE2AACDE2A05C20F281CDE2B75FCDE2A0D6E0112709CDE254
S123E240AACDE2A05C20F281CDE2B75FCDE2A0D6E0212709CDE2AACDE2A05C20F281CDE271
S123E260B75FCDE2A0D6E0322709CDE2AACDE2A05C20F281CDE2B75FCDE2A0D6E043270949
S123E280CDE2AACDE2A05C20F281CDE2B75FCDE2A0D6E0542709CDE2AACDE2A05C20F281FE
S123E2A0A6C84A26FD3A6F26F781B70210009D1100A60D4A26FD811300B70210009D110096
S123E2C0A60D4A26FD120081A687B731A612B7301E321C321B3281A601B7601233B632A4D8
S123E2E020270180B633A410270419332008B633A44026092024B633A440260180B633A4D5
S123E30004270E20001832BE6DE66EB7345CBF6D801932A600B76DB63480B632A410270A98
S11FE3202000B633A40127DD20E78CBE6DB634E76E9D9D5CBF6DA30727F09D808E
S105FFDCE2D766
S105FFFEE05AC3
S9030000FC
