S01F00006C616230365F4469676974616C5F53656E736F725F4C45442E616273BD
S123E000AAFEFDFBF7EFDFBF7F182442814224183C78F0E0C080C0E0F0783C450140949A20
S123E020C61802A47EC71802A6FFB703A600B702A681C71803CDE0798C5FB66441010220A3
S123E040F9B66841000841010F41021620ECA600B702A600B76420E2A601B702A600B76463
S123E06020D8A602B702A600B76420CEA601B7641233B632A420271080A687B731A610B7A8
S123E080301E321C321B3281B633A410270419332008B633A44026092024B633A440260170
S123E0A080B633A404270E20001832BE67E668B7345CBF67801932A600B767B63480B632EB
S123E0C0A410270A2000B633A40127DD20E78CBE67B634E7685CBF6780A6C8C70100A66472
S123E0E0C70101A60AC70102C601024AC7010226F7C601014AC7010126E9C601004AC7011C
S107E1000026DB8195
S105FFDCE06CD3
S105FFFEE01B02
S9030000FC
